{
  "contractName": "Vehicle",
  "abi": [
    {
      "constant": true,
      "inputs": [
        {
          "name": "",
          "type": "uint256"
        }
      ],
      "name": "readings",
      "outputs": [
        {
          "name": "confirmationHash",
          "type": "string"
        },
        {
          "name": "version",
          "type": "string"
        },
        {
          "name": "mileage",
          "type": "string"
        },
        {
          "name": "consumption",
          "type": "string"
        }
      ],
      "payable": false,
      "stateMutability": "view",
      "type": "function"
    },
    {
      "inputs": [],
      "payable": false,
      "stateMutability": "nonpayable",
      "type": "constructor"
    },
    {
      "constant": false,
      "inputs": [
        {
          "name": "_vin",
          "type": "uint256"
        },
        {
          "name": "_version",
          "type": "string"
        },
        {
          "name": "_mileage",
          "type": "string"
        },
        {
          "name": "_consumption",
          "type": "string"
        },
        {
          "name": "_hash",
          "type": "string"
        }
      ],
      "name": "addReading",
      "outputs": [],
      "payable": false,
      "stateMutability": "nonpayable",
      "type": "function"
    }
  ],
  "bytecode": "0x608060405234801561001057600080fd5b50610793806100206000396000f30060806040526004361061004c576000357c0100000000000000000000000000000000000000000000000000000000900463ffffffff16806390e4c5fa14610051578063d5da886d14610196575b600080fd5b34801561005d57600080fd5b5061019460048036038101908080359060200190929190803590602001908201803590602001908080601f0160208091040260200160405190810160405280939291908181526020018383808284378201915050505050509192919290803590602001908201803590602001908080601f0160208091040260200160405190810160405280939291908181526020018383808284378201915050505050509192919290803590602001908201803590602001908080601f0160208091040260200160405190810160405280939291908181526020018383808284378201915050505050509192919290803590602001908201803590602001908080601f0160208091040260200160405190810160405280939291908181526020018383808284378201915050505050509192919290505050610380565b005b3480156101a257600080fd5b506101c160048036038101908080359060200190929190505050610432565b6040518080602001806020018060200180602001858103855289818151815260200191508051906020019080838360005b8381101561020d5780820151818401526020810190506101f2565b50505050905090810190601f16801561023a5780820380516001836020036101000a031916815260200191505b50858103845288818151815260200191508051906020019080838360005b83811015610273578082015181840152602081019050610258565b50505050905090810190601f1680156102a05780820380516001836020036101000a031916815260200191505b50858103835287818151815260200191508051906020019080838360005b838110156102d95780820151818401526020810190506102be565b50505050905090810190601f1680156103065780820380516001836020036101000a031916815260200191505b50858103825286818151815260200191508051906020019080838360005b8381101561033f578082015181840152602081019050610324565b50505050905090810190601f16801561036c5780820380516001836020036101000a031916815260200191505b509850505050505050505060405180910390f35b6080604051908101604052808281526020018581526020018481526020018381525060008087815260200190815260200160002060008201518160000190805190602001906103d09291906106c2565b5060208201518160010190805190602001906103ed9291906106c2565b50604082015181600201908051906020019061040a9291906106c2565b5060608201518160030190805190602001906104279291906106c2565b509050505050505050565b6000602052806000526040600020600091509050806000018054600181600116156101000203166002900480601f0160208091040260200160405190810160405280929190818152602001828054600181600116156101000203166002900480156104de5780601f106104b3576101008083540402835291602001916104de565b820191906000526020600020905b8154815290600101906020018083116104c157829003601f168201915b505050505090806001018054600181600116156101000203166002900480601f01602080910402602001604051908101604052809291908181526020018280546001816001161561010002031660029004801561057c5780601f106105515761010080835404028352916020019161057c565b820191906000526020600020905b81548152906001019060200180831161055f57829003601f168201915b505050505090806002018054600181600116156101000203166002900480601f01602080910402602001604051908101604052809291908181526020018280546001816001161561010002031660029004801561061a5780601f106105ef5761010080835404028352916020019161061a565b820191906000526020600020905b8154815290600101906020018083116105fd57829003601f168201915b505050505090806003018054600181600116156101000203166002900480601f0160208091040260200160405190810160405280929190818152602001828054600181600116156101000203166002900480156106b85780601f1061068d576101008083540402835291602001916106b8565b820191906000526020600020905b81548152906001019060200180831161069b57829003601f168201915b5050505050905084565b828054600181600116156101000203166002900490600052602060002090601f016020900481019282601f1061070357805160ff1916838001178555610731565b82800160010185558215610731579182015b82811115610730578251825591602001919060010190610715565b5b50905061073e9190610742565b5090565b61076491905b80821115610760576000816000905550600101610748565b5090565b905600a165627a7a723058206b0b6c3ae4197aa122629bc6e3fdef2b172d9f885c4aa275fe70a86e1cc2a2830029",
  "source": "pragma solidity ^0.4.24;\n\ncontract Vehicle {\n    struct Reading {\n        string confirmationHash;\n        string version;\n        string mileage;\n        string consumption;\n    }\n\n    mapping(uint => Reading) public readings;\n\n    function Vehicle() public {\n    }\n\n    function addReading(\n        uint _vin,\n        string _version,\n        string _mileage,\n        string _consumption,\n        string _hash\n    ) public {\n\n        readings[_vin] = Reading(_hash, _version, _mileage, _consumption);\n\n    }\n}\n",
  "sourcePath": "/Users/pedroivo/Documents/testes/blockchain/blockchain-ecu/eth-blockchain/contracts/Vechicle.sol",
  "compiler": {
    "name": "solc",
    "version": "0.4.24+commit.e67f0147.Emscripten.clang"
  },
  "schemaVersion": "2.0.1",
  "updatedAt": "2018-11-17T09:42:50.757Z"
}